{
    "abi": [
        {
            "type": "constructor",
            "inputs": [],
            "stateMutability": "nonpayable"
        },
        {
            "type": "receive",
            "stateMutability": "payable"
        },
        {
            "type": "function",
            "name": "BORROW_LIMIT",
            "inputs": [],
            "outputs": [
                {
                    "name": "",
                    "type": "uint256",
                    "internalType": "uint256"
                }
            ],
            "stateMutability": "view"
        },
        {
            "type": "function",
            "name": "borrow",
            "inputs": [
                {
                    "name": "amount",
                    "type": "uint256",
                    "internalType": "uint256"
                }
            ],
            "outputs": [],
            "stateMutability": "nonpayable"
        },
        {
            "type": "function",
            "name": "cETH",
            "inputs": [],
            "outputs": [
                {
                    "name": "",
                    "type": "address",
                    "internalType": "contract CollateralToken"
                }
            ],
            "stateMutability": "view"
        },
        {
            "type": "function",
            "name": "lETH",
            "inputs": [],
            "outputs": [
                {
                    "name": "",
                    "type": "address",
                    "internalType": "contract LiabilityToken"
                }
            ],
            "stateMutability": "view"
        },
        {
            "type": "function",
            "name": "lend",
            "inputs": [],
            "outputs": [],
            "stateMutability": "payable"
        },
        {
            "type": "function",
            "name": "owner",
            "inputs": [],
            "outputs": [
                {
                    "name": "",
                    "type": "address",
                    "internalType": "address"
                }
            ],
            "stateMutability": "view"
        },
        {
            "type": "function",
            "name": "redeem",
            "inputs": [
                {
                    "name": "amount",
                    "type": "uint256",
                    "internalType": "uint256"
                },
                {
                    "name": "isCollateral",
                    "type": "bool",
                    "internalType": "bool"
                }
            ],
            "outputs": [],
            "stateMutability": "nonpayable"
        },
        {
            "type": "function",
            "name": "renounceOwnership",
            "inputs": [],
            "outputs": [],
            "stateMutability": "nonpayable"
        },
        {
            "type": "function",
            "name": "transferOwnership",
            "inputs": [
                {
                    "name": "newOwner",
                    "type": "address",
                    "internalType": "address"
                }
            ],
            "outputs": [],
            "stateMutability": "nonpayable"
        },
        {
            "type": "event",
            "name": "Borrowed",
            "inputs": [
                {
                    "name": "user",
                    "type": "address",
                    "indexed": true,
                    "internalType": "address"
                },
                {
                    "name": "amount",
                    "type": "uint256",
                    "indexed": false,
                    "internalType": "uint256"
                }
            ],
            "anonymous": false
        },
        {
            "type": "event",
            "name": "Lent",
            "inputs": [
                {
                    "name": "user",
                    "type": "address",
                    "indexed": true,
                    "internalType": "address"
                },
                {
                    "name": "amount",
                    "type": "uint256",
                    "indexed": false,
                    "internalType": "uint256"
                }
            ],
            "anonymous": false
        },
        {
            "type": "event",
            "name": "OwnershipTransferred",
            "inputs": [
                {
                    "name": "previousOwner",
                    "type": "address",
                    "indexed": true,
                    "internalType": "address"
                },
                {
                    "name": "newOwner",
                    "type": "address",
                    "indexed": true,
                    "internalType": "address"
                }
            ],
            "anonymous": false
        },
        {
            "type": "event",
            "name": "Redeemed",
            "inputs": [
                {
                    "name": "user",
                    "type": "address",
                    "indexed": true,
                    "internalType": "address"
                },
                {
                    "name": "amount",
                    "type": "uint256",
                    "indexed": false,
                    "internalType": "uint256"
                },
                {
                    "name": "isCollateral",
                    "type": "bool",
                    "indexed": false,
                    "internalType": "bool"
                }
            ],
            "anonymous": false
        },
        {
            "type": "error",
            "name": "OwnableInvalidOwner",
            "inputs": [
                {
                    "name": "owner",
                    "type": "address",
                    "internalType": "address"
                }
            ]
        },
        {
            "type": "error",
            "name": "OwnableUnauthorizedAccount",
            "inputs": [
                {
                    "name": "account",
                    "type": "address",
                    "internalType": "address"
                }
            ]
        }
    ],
    "bytecode": {
        "object": "0x608060405234801561001057600080fd5b50338061003757604051631e4fbdf760e01b81526000600482015260240160405180910390fd5b610040816100fb565b503060405161004e9061014b565b6001600160a01b039091168152602001604051809103906000f08015801561007a573d6000803e3d6000fd5b50600180546001600160a01b0319166001600160a01b039290921691909117905560405130906100a990610158565b6001600160a01b039091168152602001604051809103906000f0801580156100d5573d6000803e3d6000fd5b50600280546001600160a01b0319166001600160a01b0392909216919091179055610165565b600080546001600160a01b038381166001600160a01b0319831681178455604051919092169283917f8be0079c531659141344cd1fd0a4f28419497f9722a3daafe3b4186f6b6457e09190a35050565b610c3b80610b3083390190565b610c3a8061176b83390190565b6109bc806101746000396000f3fe60806040526004361061008a5760003560e01c8063a1b4d01111610059578063a1b4d01114610115578063a3c9a47b14610135578063c5ebeaec14610155578063d65a06b014610175578063f2fde38b1461019557600080fd5b8063715018a6146100965780638da5cb5b146100ad5780639395be78146100e457806397dffc611461010d57600080fd5b3661009157005b600080fd5b3480156100a257600080fd5b506100ab6101b5565b005b3480156100b957600080fd5b506000546001600160a01b03165b6040516001600160a01b0390911681526020015b60405180910390f35b3480156100f057600080fd5b506100ff66b1a2bc2ec5000081565b6040519081526020016100db565b6100ab6101c9565b34801561012157600080fd5b506001546100c7906001600160a01b031681565b34801561014157600080fd5b506002546100c7906001600160a01b031681565b34801561016157600080fd5b506100ab6101703660046108c8565b6102b0565b34801561018157600080fd5b506100ab6101903660046108e1565b6104f5565b3480156101a157600080fd5b506100ab6101b0366004610916565b61080d565b6101bd61084b565b6101c76000610878565b565b600034116102165760405162461bcd60e51b8152602060048201526015602482015274135d5cdd081cd95b9908115512081d1bc81b195b99605a1b60448201526064015b60405180910390fd5b6001546040516340c10f1960e01b81523360048201523460248201526001600160a01b03909116906340c10f1990604401600060405180830381600087803b15801561026157600080fd5b505af1158015610275573d6000803e3d6000fd5b50506040513481523392507f26ff3f6dedac6d273c293b8c866e073f40896739d99ad513862fe7ba70cf63ca915060200160405180910390a2565b66b1a2bc2ec500008111156102fe5760405162461bcd60e51b8152602060048201526014602482015273115e18d959591cc8189bdc9c9bddc81b1a5b5a5d60621b604482015260640161020d565b6002546040516370a0823160e01b815233600482015266b1a2bc2ec500009183916001600160a01b03909116906370a0823190602401602060405180830381865afa158015610351573d6000803e3d6000fd5b505050506040513d601f19601f820116820180604052508101906103759190610946565b61037f919061095f565b11156103db5760405162461bcd60e51b815260206004820152602560248201527f4578636565647320746f74616c20626f72726f77206c696d6974207065722077604482015264185b1b195d60da1b606482015260840161020d565b8047101561042b5760405162461bcd60e51b815260206004820152601a60248201527f4e6f7420656e6f7567682045544820696e20636f6e7472616374000000000000604482015260640161020d565b6002546040516340c10f1960e01b8152336004820152602481018390526001600160a01b03909116906340c10f1990604401600060405180830381600087803b15801561047757600080fd5b505af115801561048b573d6000803e3d6000fd5b505060405133925083156108fc02915083906000818181858888f193505050501580156104bc573d6000803e3d6000fd5b5060405181815233907fac59582e5396aca512fa873a2047e7f4c80f8f55d4a06cb34a78a0187f62719f9060200160405180910390a250565b801561061e576001546040516370a0823160e01b815233600482015283916001600160a01b0316906370a0823190602401602060405180830381865afa158015610543573d6000803e3d6000fd5b505050506040513d601f19601f820116820180604052508101906105679190610946565b10156105b55760405162461bcd60e51b815260206004820152601960248201527f496e73756666696369656e7420634554482062616c616e636500000000000000604482015260640161020d565b60015460405163079cc67960e41b8152336004820152602481018490526001600160a01b03909116906379cc679090604401600060405180830381600087803b15801561060157600080fd5b505af1158015610615573d6000803e3d6000fd5b5050505061079f565b6002546040516370a0823160e01b815233600482015283916001600160a01b0316906370a0823190602401602060405180830381865afa158015610666573d6000803e3d6000fd5b505050506040513d601f19601f8201168201806040525081019061068a9190610946565b10156106d85760405162461bcd60e51b815260206004820152601960248201527f496e73756666696369656e74206c4554482062616c616e636500000000000000604482015260640161020d565b8147101561073a5760405162461bcd60e51b815260206004820152602960248201527f4e6f7420656e6f7567682045544820696e20636f6e747261637420666f72207260448201526832b232b6b83a34b7b760b91b606482015260840161020d565b60025460405163079cc67960e41b8152336004820152602481018490526001600160a01b03909116906379cc679090604401600060405180830381600087803b15801561078657600080fd5b505af115801561079a573d6000803e3d6000fd5b505050505b604051339083156108fc029084906000818181858888f193505050501580156107cc573d6000803e3d6000fd5b5060408051838152821515602082015233917f066d96cb280fccf3a0a3a5686966a801b2690a32ec98fd2711a4e09f345d935d910160405180910390a25050565b61081561084b565b6001600160a01b03811661083f57604051631e4fbdf760e01b81526000600482015260240161020d565b61084881610878565b50565b6000546001600160a01b031633146101c75760405163118cdaa760e01b815233600482015260240161020d565b600080546001600160a01b038381166001600160a01b0319831681178455604051919092169283917f8be0079c531659141344cd1fd0a4f28419497f9722a3daafe3b4186f6b6457e09190a35050565b6000602082840312156108da57600080fd5b5035919050565b600080604083850312156108f457600080fd5b823591506020830135801515811461090b57600080fd5b809150509250929050565b60006020828403121561092857600080fd5b81356001600160a01b038116811461093f57600080fd5b9392505050565b60006020828403121561095857600080fd5b5051919050565b8082018082111561098057634e487b7160e01b600052601160045260246000fd5b9291505056fea26469706673582212208cfc7cd3c3a6d6636d8fb5af319f00d1a0a731341d7b60c1d2bf20cffbdcbc6d64736f6c634300081b0033608060405234801561001057600080fd5b50604051610c3b380380610c3b83398101604081905261002f91610123565b806040518060400160405280600e81526020016d086ded8d8c2e8cae4c2d8408aa8960931b815250604051806040016040528060048152602001630c68aa8960e31b815250816003908161008391906101f2565b50600461009082826101f2565b5050506001600160a01b0381166100c157604051631e4fbdf760e01b81526000600482015260240160405180910390fd5b6100ca816100d1565b50506102b0565b600580546001600160a01b038381166001600160a01b0319831681179093556040519116919082907f8be0079c531659141344cd1fd0a4f28419497f9722a3daafe3b4186f6b6457e090600090a35050565b60006020828403121561013557600080fd5b81516001600160a01b038116811461014c57600080fd5b9392505050565b634e487b7160e01b600052604160045260246000fd5b600181811c9082168061017d57607f821691505b60208210810361019d57634e487b7160e01b600052602260045260246000fd5b50919050565b601f8211156101ed57806000526020600020601f840160051c810160208510156101ca5750805b601f840160051c820191505b818110156101ea57600081556001016101d6565b50505b505050565b81516001600160401b0381111561020b5761020b610153565b61021f816102198454610169565b846101a3565b6020601f821160018114610253576000831561023b5750848201515b600019600385901b1c1916600184901b1784556101ea565b600084815260208120601f198516915b828110156102835787850151825560209485019460019092019101610263565b50848210156102a15786840151600019600387901b60f8161c191681555b50505050600190811b01905550565b61097c806102bf6000396000f3fe608060405234801561001057600080fd5b50600436106100f55760003560e01c806370a082311161009757806395d89b411161006657806395d89b41146101f6578063a9059cbb146101fe578063dd62ed3e14610211578063f2fde38b1461024a57600080fd5b806370a0823114610197578063715018a6146101c057806379cc6790146101c85780638da5cb5b146101db57600080fd5b806323b872dd116100d357806323b872dd1461014d578063313ce5671461016057806340c10f191461016f57806342966c681461018457600080fd5b806306fdde03146100fa578063095ea7b31461011857806318160ddd1461013b575b600080fd5b61010261025d565b60405161010f91906107ac565b60405180910390f35b61012b610126366004610816565b6102ef565b604051901515815260200161010f565b6002545b60405190815260200161010f565b61012b61015b366004610840565b610309565b6040516012815260200161010f565b61018261017d366004610816565b61032d565b005b61018261019236600461087d565b610343565b61013f6101a5366004610896565b6001600160a01b031660009081526020819052604090205490565b610182610350565b6101826101d6366004610816565b610364565b6005546040516001600160a01b03909116815260200161010f565b610102610376565b61012b61020c366004610816565b610385565b61013f61021f3660046108b8565b6001600160a01b03918216600090815260016020908152604080832093909416825291909152205490565b610182610258366004610896565b610393565b60606003805461026c906108eb565b80601f0160208091040260200160405190810160405280929190818152602001828054610298906108eb565b80156102e55780601f106102ba576101008083540402835291602001916102e5565b820191906000526020600020905b8154815290600101906020018083116102c857829003601f168201915b5050505050905090565b6000336102fd8185856103d3565b60019150505b92915050565b6000336103178582856103e5565b610322858585610463565b506001949350505050565b6103356104c2565b61033f82826104ef565b5050565b61034d3382610525565b50565b6103586104c2565b610362600061055b565b565b61036c6104c2565b61033f8282610525565b60606004805461026c906108eb565b6000336102fd818585610463565b61039b6104c2565b6001600160a01b0381166103ca57604051631e4fbdf760e01b8152600060048201526024015b60405180910390fd5b61034d8161055b565b6103e083838360016105ad565b505050565b6001600160a01b03838116600090815260016020908152604080832093861683529290522054600019811461045d578181101561044e57604051637dc7a0d960e11b81526001600160a01b038416600482015260248101829052604481018390526064016103c1565b61045d848484840360006105ad565b50505050565b6001600160a01b03831661048d57604051634b637e8f60e11b8152600060048201526024016103c1565b6001600160a01b0382166104b75760405163ec442f0560e01b8152600060048201526024016103c1565b6103e0838383610682565b6005546001600160a01b031633146103625760405163118cdaa760e01b81523360048201526024016103c1565b6001600160a01b0382166105195760405163ec442f0560e01b8152600060048201526024016103c1565b61033f60008383610682565b6001600160a01b03821661054f57604051634b637e8f60e11b8152600060048201526024016103c1565b61033f82600083610682565b600580546001600160a01b038381166001600160a01b0319831681179093556040519116919082907f8be0079c531659141344cd1fd0a4f28419497f9722a3daafe3b4186f6b6457e090600090a35050565b6001600160a01b0384166105d75760405163e602df0560e01b8152600060048201526024016103c1565b6001600160a01b03831661060157604051634a1406b160e11b8152600060048201526024016103c1565b6001600160a01b038085166000908152600160209081526040808320938716835292905220829055801561045d57826001600160a01b0316846001600160a01b03167f8c5be1e5ebec7d5bd14f71427d1e84f3dd0314c0f7b2291e5b200ac8c7c3b9258460405161067491815260200190565b60405180910390a350505050565b6001600160a01b0383166106ad5780600260008282546106a29190610925565b9091555061071f9050565b6001600160a01b038316600090815260208190526040902054818110156107005760405163391434e360e21b81526001600160a01b038516600482015260248101829052604481018390526064016103c1565b6001600160a01b03841660009081526020819052604090209082900390555b6001600160a01b03821661073b5760028054829003905561075a565b6001600160a01b03821660009081526020819052604090208054820190555b816001600160a01b0316836001600160a01b03167fddf252ad1be2c89b69c2b068fc378daa952ba7f163c4a11628f55a4df523b3ef8360405161079f91815260200190565b60405180910390a3505050565b602081526000825180602084015260005b818110156107da57602081860181015160408684010152016107bd565b506000604082850101526040601f19601f83011684010191505092915050565b80356001600160a01b038116811461081157600080fd5b919050565b6000806040838503121561082957600080fd5b610832836107fa565b946020939093013593505050565b60008060006060848603121561085557600080fd5b61085e846107fa565b925061086c602085016107fa565b929592945050506040919091013590565b60006020828403121561088f57600080fd5b5035919050565b6000602082840312156108a857600080fd5b6108b1826107fa565b9392505050565b600080604083850312156108cb57600080fd5b6108d4836107fa565b91506108e2602084016107fa565b90509250929050565b600181811c908216806108ff57607f821691505b60208210810361091f57634e487b7160e01b600052602260045260246000fd5b50919050565b8082018082111561030357634e487b7160e01b600052601160045260246000fdfea264697066735822122059ef933e6f204e993ab8cff4f65595474785b389d9ab46b5b10cd6ec8bc172ee64736f6c634300081b0033608060405234801561001057600080fd5b50604051610c3a380380610c3a83398101604081905261002f91610122565b806040518060400160405280600d81526020016c098d2c2c4d2d8d2e8f2408aa89609b1b815250604051806040016040528060048152602001630d88aa8960e31b815250816003908161008291906101f1565b50600461008f82826101f1565b5050506001600160a01b0381166100c057604051631e4fbdf760e01b81526000600482015260240160405180910390fd5b6100c9816100d0565b50506102af565b600580546001600160a01b038381166001600160a01b0319831681179093556040519116919082907f8be0079c531659141344cd1fd0a4f28419497f9722a3daafe3b4186f6b6457e090600090a35050565b60006020828403121561013457600080fd5b81516001600160a01b038116811461014b57600080fd5b9392505050565b634e487b7160e01b600052604160045260246000fd5b600181811c9082168061017c57607f821691505b60208210810361019c57634e487b7160e01b600052602260045260246000fd5b50919050565b601f8211156101ec57806000526020600020601f840160051c810160208510156101c95750805b601f840160051c820191505b818110156101e957600081556001016101d5565b50505b505050565b81516001600160401b0381111561020a5761020a610152565b61021e816102188454610168565b846101a2565b6020601f821160018114610252576000831561023a5750848201515b600019600385901b1c1916600184901b1784556101e9565b600084815260208120601f198516915b828110156102825787850151825560209485019460019092019101610262565b50848210156102a05786840151600019600387901b60f8161c191681555b50505050600190811b01905550565b61097c806102be6000396000f3fe608060405234801561001057600080fd5b50600436106100f55760003560e01c806370a082311161009757806395d89b411161006657806395d89b41146101f6578063a9059cbb146101fe578063dd62ed3e14610211578063f2fde38b1461024a57600080fd5b806370a0823114610197578063715018a6146101c057806379cc6790146101c85780638da5cb5b146101db57600080fd5b806323b872dd116100d357806323b872dd1461014d578063313ce5671461016057806340c10f191461016f57806342966c681461018457600080fd5b806306fdde03146100fa578063095ea7b31461011857806318160ddd1461013b575b600080fd5b61010261025d565b60405161010f91906107ac565b60405180910390f35b61012b610126366004610816565b6102ef565b604051901515815260200161010f565b6002545b60405190815260200161010f565b61012b61015b366004610840565b610309565b6040516012815260200161010f565b61018261017d366004610816565b61032d565b005b61018261019236600461087d565b610343565b61013f6101a5366004610896565b6001600160a01b031660009081526020819052604090205490565b610182610350565b6101826101d6366004610816565b610364565b6005546040516001600160a01b03909116815260200161010f565b610102610376565b61012b61020c366004610816565b610385565b61013f61021f3660046108b8565b6001600160a01b03918216600090815260016020908152604080832093909416825291909152205490565b610182610258366004610896565b610393565b60606003805461026c906108eb565b80601f0160208091040260200160405190810160405280929190818152602001828054610298906108eb565b80156102e55780601f106102ba576101008083540402835291602001916102e5565b820191906000526020600020905b8154815290600101906020018083116102c857829003601f168201915b5050505050905090565b6000336102fd8185856103d3565b60019150505b92915050565b6000336103178582856103e5565b610322858585610463565b506001949350505050565b6103356104c2565b61033f82826104ef565b5050565b61034d3382610525565b50565b6103586104c2565b610362600061055b565b565b61036c6104c2565b61033f8282610525565b60606004805461026c906108eb565b6000336102fd818585610463565b61039b6104c2565b6001600160a01b0381166103ca57604051631e4fbdf760e01b8152600060048201526024015b60405180910390fd5b61034d8161055b565b6103e083838360016105ad565b505050565b6001600160a01b03838116600090815260016020908152604080832093861683529290522054600019811461045d578181101561044e57604051637dc7a0d960e11b81526001600160a01b038416600482015260248101829052604481018390526064016103c1565b61045d848484840360006105ad565b50505050565b6001600160a01b03831661048d57604051634b637e8f60e11b8152600060048201526024016103c1565b6001600160a01b0382166104b75760405163ec442f0560e01b8152600060048201526024016103c1565b6103e0838383610682565b6005546001600160a01b031633146103625760405163118cdaa760e01b81523360048201526024016103c1565b6001600160a01b0382166105195760405163ec442f0560e01b8152600060048201526024016103c1565b61033f60008383610682565b6001600160a01b03821661054f57604051634b637e8f60e11b8152600060048201526024016103c1565b61033f82600083610682565b600580546001600160a01b038381166001600160a01b0319831681179093556040519116919082907f8be0079c531659141344cd1fd0a4f28419497f9722a3daafe3b4186f6b6457e090600090a35050565b6001600160a01b0384166105d75760405163e602df0560e01b8152600060048201526024016103c1565b6001600160a01b03831661060157604051634a1406b160e11b8152600060048201526024016103c1565b6001600160a01b038085166000908152600160209081526040808320938716835292905220829055801561045d57826001600160a01b0316846001600160a01b03167f8c5be1e5ebec7d5bd14f71427d1e84f3dd0314c0f7b2291e5b200ac8c7c3b9258460405161067491815260200190565b60405180910390a350505050565b6001600160a01b0383166106ad5780600260008282546106a29190610925565b9091555061071f9050565b6001600160a01b038316600090815260208190526040902054818110156107005760405163391434e360e21b81526001600160a01b038516600482015260248101829052604481018390526064016103c1565b6001600160a01b03841660009081526020819052604090209082900390555b6001600160a01b03821661073b5760028054829003905561075a565b6001600160a01b03821660009081526020819052604090208054820190555b816001600160a01b0316836001600160a01b03167fddf252ad1be2c89b69c2b068fc378daa952ba7f163c4a11628f55a4df523b3ef8360405161079f91815260200190565b60405180910390a3505050565b602081526000825180602084015260005b818110156107da57602081860181015160408684010152016107bd565b506000604082850101526040601f19601f83011684010191505092915050565b80356001600160a01b038116811461081157600080fd5b919050565b6000806040838503121561082957600080fd5b610832836107fa565b946020939093013593505050565b60008060006060848603121561085557600080fd5b61085e846107fa565b925061086c602085016107fa565b929592945050506040919091013590565b60006020828403121561088f57600080fd5b5035919050565b6000602082840312156108a857600080fd5b6108b1826107fa565b9392505050565b600080604083850312156108cb57600080fd5b6108d4836107fa565b91506108e2602084016107fa565b90509250929050565b600181811c908216806108ff57607f821691505b60208210810361091f57634e487b7160e01b600052602260045260246000fd5b50919050565b8082018082111561030357634e487b7160e01b600052601160045260246000fdfea26469706673582212207bf5c8c32fbe8fa82bc2bc81c5a71ee976c2a96679083aa1f1fbc7291fe47b6364736f6c634300081b0033",
        "linkReferences": {}
    },
    "methodIdentifiers": {
        "BORROW_LIMIT()": "9395be78",
        "borrow(uint256)": "c5ebeaec",
        "cETH()": "a1b4d011",
        "lETH()": "a3c9a47b",
        "lend()": "97dffc61",
        "owner()": "8da5cb5b",
        "redeem(uint256,bool)": "d65a06b0",
        "renounceOwnership()": "715018a6",
        "transferOwnership(address)": "f2fde38b"
    },
    "id": 27
}